:10000000885D00201DAE000019AE000019AE000092
:1000100019AE000019AE000019AE0000000000008B
:1000200000000000000000000000000019AE000009
:1000300019AE00000000000019AE000019AE00006B
:1000400019AE000019AE00008141000019AE000099
:1000500019AE000019AE000019AE000019AE000084
:1000600019AE000019AE000019AE000019AE000074
:1000700019AE000019AE000019AE000019AE000064
:1000800019AE000019AE000019AE000019AE000054
:1000900019AE000019AE000019AE000019AE000044
:1000A00019AE000019AE000019AE000019AE000034
:1000B00019AE000019AE000019AE000019AE000024
:1000C00019AE000019AE000019AE000019AE000014
:1000D00019AE000019AE000019AE000019AE000004
:1000E00019AE000019AE00000000000019AE0000BB
:1000F00019AE000019AE000019AE000019AE0000E4
:1001000019AE000019AE000019AE000019AE0000D3
:10011000000000000000000019AE000019AE000051
:1001200019AE000019AE000019AE000019AE0000B3
:1001300019AE000019AE000019AE000019AE0000A3
:1001400000000000000000000000000000000000AF
:1001500019AE000019AE000019AE000019AE000083
:10016000000000000000000000000000000000008F
:10017000000000000000000000000000000000007F
:10018000000000000000000000000000000000006F
:10019000000000000000000000000000000000005F
:1001A000000000000000000000000000000000004F
:1001B00019AE000019AE000019AE000019AE000023
:1001C00019AE000019AE000019AE000019AE000013
:1001D00019AE000019AE000019AE000019AE000003
:1001E00019AE000019AE000019AE000019AE0000F3
:1001F00019AE000019AE000019AE000019AE0000E3
:1002000019AE000019AE000019AE00000000000099
:1002100019AE000019AE000019AE000019AE0000C2
:1002200019AE000019AE000019AE000019AE0000B2
:1002300019AE000019AE000019AE000019AE0000A2
:1002400019AE000019AE000019AE000019AE000092
:1002500019AE000019AE000019AE000019AE000082
:1002600019AE000019AE000019AE0000024A136872
:10027000002BFCDA704700BF10C00F4008B5044ADD
:10028000136843F040031360FFF7F0FF08BD00BFA1
:1002900010C00F4008B5044A136823F040031360F0
:1002A000FFF7E4FF08BD00BF10C00F4010B50446C3
:1002B0000D4B1B6823F4302300F43022134310F459
:1002C000002F18BF43F04003074A1360FFF7CEFF2B
:1002D000064B1A68064B1340064A934203D104F0BA
:1002E0000304054B1C6010BD10C00F4000E00F4020
:1002F0000000FF7000000A10C8CF0F4008B5044A84
:10030000136843F001031360FFF7B0FF08BD00BF9F
:1003100010C00F4008B5044A136823F001031360AE
:10032000FFF7A4FF08BD00BF10C00F4010B5044682
:10033000164A136823F4067303431360FFF796FF0E
:10034000134B1A68134B1340134A93421CD114F0F9
:10035000101F0BD00D4B1B6813F4807F06D10B4A86
:10036000136843F480731360FFF780FF240C44F09C
:1003700001040A4B1C601A461368002BFCDA074A7A
:10038000136823F00103136010BD00BF10C00F40BD
:1003900000E00F400000FF7000000A102CC00F406A
:1003A00038B50546064C074B2360FFF75FFF064B49
:1003B0001D60FFF75BFF00232360FFF757FF38BD89
:1003C00060C30F40549535A30CC00F40014B186813
:1003D000704700BF00C00F4008B5024B1960FFF71F
:1003E00045FF08BD04C00F4079B1F8B50E46051FA2
:1003F0000024064F3F1A7B1955F8042F1A60FFF7A7
:1004000035FF0134B442F6D1F8BD704734C00F4017
:1004100061B110B400EB81010346054C241AE25887
:1004200043F8042B8B42FAD15DF8044B704700BFB0
:1004300030C00F4008B5044A136843F0020313604C
:10044000FFF714FF08BD00BF10C00F4008B5044AF5
:10045000136823EA00001060FFF708FF08BD00BF23
:1004600014C00F4010B1034B18687047024B186856
:10047000704700BF1CC00F4018C00F4008B5034AAA
:10048000136818431060FFF7F1FE08BD20C00F404D
:10049000024B1868C0F38010704700BF10C00F40B7
:1004A00008B5054A136843F0804343F48073136032
:1004B000FFF7DCFE08BD00BF10C00F4008B5034BBE
:1004C0001B6803FB00F003F02DFF08BDA40B002008
:1004D00008B5034B1B6803FB00F003F023FF08BDC6
:1004E000A00B002008B5094803F020FF03F0B8FF77
:1004F000074BA3FB00308009064B1860064BA3FB9B
:1005000000308009054B186008BD00BF400500C1E0
:10051000F1197605A40B0020D34D6210A00B00202A
:1005200010B5174803F0DAFE0A2003F0FBFE154C65
:100530002046E02104F090FC2046202101220A23DD
:1005400004F0CEFB2046402101220A2304F0C8FB20
:100550002046802101220A2304F0C2FB0A4803F04E
:10056000BDFE0A2003F0DEFE0848072104F082FCED
:10057000074803F0B3FE0748302104F0B3FC10BD78
:10058000020800F000600040040800F00040024053
:10059000030800F00070004010B50A4C204680218E
:1005A000042204F06DFB2046802104F03BFC204631
:1005B0004021042204F064FB2046402104F032FC78
:1005C00010BD00BF0060004010B50F4803F086FE6C
:1005D0000E4803F083FE4FF0031004F091FC0C482A
:1005E00004F08EFC0B4C2046012104F05FFC2046F9
:1005F000022104F04DFC03F033FF014606480022BF
:1006000001F082FC10BD00BF032000F0030800F0E1
:1006100003040300007000400030024070B582B057
:10062000274803F05BFE0A2003F07CFE254803F018
:1006300055FE0A2003F076FE234A244B136024491A
:100640000B6843F001030B60A1F582710B6843F066
:1006500001030B60FC310B6843F001030B600024C5
:1006600014600A2003F05EFE1A4D2846214604F06D
:100670000FFE194804F044FC184804F041FC1848E7
:1006800004F03EFC174E3046072104F01DFC4FF4E9
:100690007A73009310230193284613492246234678
:1006A00004F0B4FD3046082104F0E4FB3046082194
:1006B0000A4604F0CDFB284604F0C8FD02B070BD28
:1006C000050800F0011C00F0205502404B434F4C40
:1006D0002455024000900040020805000200050079
:1006E0000204050000500240801A060008B503F01D
:1006F0003DFBFFF7F7FEFFF713FFFFF765FFFFF77F
:100700008DFFFFF749FF04F0B3FC08BD044B054A19
:100710001A60054A5A6040221A725872704700BF28
:10072000BC0B0020030800F0007000400EB42DE95F
:10073000F04183B0014609AC14F8046B304D2846F3
:10074000002201F00DFC0434019428469DF8281085
:1007500001F010FC012E0ED12846072101F008FC03
:100760004FF4FA7003F0DEFD2C46204601F0FCFB4E
:100770000028FAD13FE02248032101F0F9FB4FF4B1
:10078000FA7003F0CFFD1E4C204601F0EDFB00286F
:10079000FAD1013E012E1BDD0125194CA8464FF46C
:1007A000FA77019B1A1D01922046197801F0E2FBAD
:1007B0002046414601F0DCFB384603F0B3FD2046FD
:1007C00001F0D2FB0028FAD10135EDB2B542E8DBE9
:1007D0000B4C2046019B197801F0CCFB20460521EB
:1007E00001F0C6FB4FF4FA7003F09CFD204601F0C7
:1007F000BBFB0028FAD103B0BDE8F04103B070475D
:100800000030024070B50E46C5B2174C204629464E
:10081000002201F0A5FB2046314601F0ABFB20464B
:10082000032101F0A5FB4FF4FA7003F07BFD204695
:1008300001F09AFB0028FAD10B4C204629460122F0
:1008400001F08EFB2046072101F092FB4FF4FA7075
:1008500003F068FD204601F087FB0028FAD102482A
:1008600001F08AFB70BD00BF00300240054BA3FBC6
:100870000023DB0803EB8302A0EB420040EA0310F5
:10088000C0B27047CDCCCCCC030903EB830300F09E
:100890000F0000EB4300C0B2704700BF2DE9F043EA
:1008A00087B00F4616461D46FFF7E0FF0446384660
:1008B000FFF7DCFF81463046FFF7D8FF8046284629
:1008C000FFF7D4FF07469DF83800FFF7CFFF064635
:1008D0009DF83C00FFF7CAFF05469DF84000FFF772
:1008E000C5FFCDF80090CDF80480029703960495DB
:1008F00005906820082100222346FFF717FF07B064
:10090000BDE8F08308B501466820FFF77BFFC0B261
:10091000FFF7BAFF08BD00BFF8B504460420FFF793
:10092000F1FF06460520FFF7EDFF05460620FFF71D
:10093000E9FF2C4BA3FB0612D208D1B2A3FB01E7BF
:10094000FF0807EB8707A1EB47013031217002EB6D
:100950008202A6EB4206F6B2A3FB0612D20802EB15
:100960008202A6EB4206303666702D21A170A3FBF1
:100970000562D208D6B2A3FB06E7FF0807EB87079C
:10098000A6EB47063036E67002EB8202A5EB420585
:10099000EDB2A3FB0562D20802EB8202A5EB420591
:1009A000303525716171A3FB0012D208D1B2A3FBCF
:1009B0000165ED0805EB8505A1EB45013031A1711D
:1009C00002EB8202A0EB4200C0B2A3FB0023DB08D3
:1009D00003EB8303A0EB43033033E3710023237263
:1009E000F8BD00BFCDCCCCCCF8B505460020FFF754
:1009F00089FF04460120FFF785FF06460220FFF726
:100A000081FF2C4BA3FB0012D208D1B2A3FB01E75C
:100A1000FF0807EB8707A1EB47013031297002EB94
:100A20008202A0EB4200C0B2A3FB0012D20802EB8C
:100A30008202A0EB4200303068703A21A970A3FB1B
:100A40000602D208D0B2A3FB00E7FF0807EB870736
:100A5000A0EB47003030E87002EB8202A6EB4206C2
:100A6000F6B2A3FB0602D20802EB8202A6EB420614
:100A700030362E716971A3FB0412D208D1B2A3FBE8
:100A80000160C00800EB8000A1EB40013031A9718A
:100A900002EB8202A4EB4204E4B2A3FB0423DB08D2
:100AA00003EB8303A4EB43033033EB7100232B727E
:100AB000F8BD00BFCDCCCCCC10B5404C20464B216E
:100AC000002201F04DFA2046002101F053FA2046A1
:100AD000032101F04DFA204601F046FA0028FAD031
:100AE000364C204601F040FA0028FAD1334C20461B
:100AF0004B21012201F034FA20460B2101F038FA93
:100B0000204601F031FA0028FAD02C4C204601F0A2
:100B10002BFA0028FAD1294C204601F02DFA0002C8
:100B2000274B18602046052101F022FA204601F0EB
:100B30001BFA0028FAD0214C204601F015FA0028B3
:100B4000FAD11E4C204601F017FA1D4B5860204682
:100B50004B21002201F004FA2046012101F00AFA9B
:100B60002046032101F004FA204601F0FDF9002897
:100B7000FAD0134A506813681844C008906000F413
:100B80008053D3607BB1C0F30B00C0F56760906009
:100B90000CF096F800220B4B0CF008F90CF0DEFB81
:100BA00000EE100A10BD0CF08BF80022064B0CF082
:100BB000FDF80CF0D3FB00EE100A10BD003002402F
:100BC000EC0900200000B0BF0000B03FF8B50546BA
:100BD0000F4616462E4C20464B21002201F0C0F94C
:100BE0002046002101F0C6F92046032101F0C0F99A
:100BF000204601F0B9F90028FAD0254C204601F032
:100C0000B3F90028FAD1224C20464B21012201F0F1
:100C1000A7F920460B2101F0ABF9204601F0A4F919
:100C20000028FAD01A4C204601F09EF90028FAD18B
:100C3000174C204601F0A0F928602046052101F05C
:100C400097F9204601F090F90028FAD0104C204680
:100C500001F08AF90028FAD10D4C204601F08CF9F8
:100C600038602B68C3F3C013336020464B21002249
:100C700001F076F92046012101F07CF9204603219C
:100C800001F076F9204601F06FF90028FAD0F8BD9E
:100C90000030024000000000F8B5CD4C204629216C
:100CA000002201F05DF92046802101F063F9204621
:100CB000032101F05FF92046032101F059F9204694
:100CC00001F052F90028FAD0C14C204601F04CF94D
:100CD0000028FAD14FF4CD70FFF7FAFB29208C21C0
:100CE000FFF790FDBB4C206129208D21FFF78AFD85
:100CF0006061236943EA002529208E21FFF782FDE8
:100D0000206129208F21FFF77DFD6061236943EA7F
:100D10000026AF4C20462921002201F021F920466F
:100D2000802101F027F92046002101F023F9204617
:100D3000032101F01DF9204601F016F90028FAD030
:100D4000A34C204601F010F90028FAD12C013501FE
:100D5000B5FBF4F00BF0B4FF06460F4600224FF04F
:100D60007F530CF095FAC8B120460BF0A9FF74A38D
:100D7000D3E900230CF01AF804460D4630463946F4
:100D800071A3D3E900230CF011F802460B4620466C
:100D900029460BF057FE41EC100BF8BD30463946A2
:100DA00000228D4B0CF074FAC8B120460BF088FF7E
:100DB00067A3D3E900230BF0F9FF04460D46304644
:100DC000394665A3D3E900230BF0F0FF02460B463A
:100DD000204629460BF036FE41EC100BF8BD30469C
:100DE000394600227D4B0CF053FAC8B120460BF077
:100DF00067FF5BA3D3E900230BF0D8FF04460D4641
:100E00003046394658A3D3E900230BF0CFFF024602
:100E10000B46204629460BF015FE41EC100BF8BDA1
:100E20003046394600226E4B0CF032FAC8B12046EB
:100E30000BF046FF4EA3D3E900230BF0B7FF0446A7
:100E40000D46304639464CA3D3E900230BF0AEFFE4
:100E500002460B46204629460BF0F4FD41EC100BF0
:100E6000F8BD3046394646A3D3E900230CF010FA0A
:100E7000D0B120460BF024FF43A3D3E900230BF0AD
:100E800095FF06460F4628460BF01AFF40A3D3E90C
:100E900000230BF08BFF02460B46304639460BF021
:100EA000D1FD41EC100BF8BD304639463AA3D3E9E9
:100EB00000230CF0EDF9D0B120460BF001FF38A370
:100EC000D3E900230BF072FF06460F4628460BF0CD
:100ED000F7FE35A3D3E900230BF068FF02460B466B
:100EE000304639460BF0AEFD41EC100BF8BD3046F4
:100EF00039462FA3D3E900230CF0D4F9D0B1204612
:100F00000BF0DEFE2CA3D3E900230BF04FFF0646C7
:100F10000F4628460BF0D4FE29A3D3E900230BF09B
:100F200045FF02460B46304639460BF08BFD41EC3F
:100F3000100BF8BD9FED240BF8BD00BFAFF3008090
:100F4000C58F31772D219F3F5F07CE1951DA9B3F27
:100F5000A4703D0AD7A3A03FBA490C022B87A63F35
:100F6000105839B4C876D63F5F07CE1951DAAB3F77
:100F70001E166A4DF38EA33FDE718A8EE4F2AF3FF8
:100F800085EB51B81E85E33FC7BAB88D06F0963F92
:100F90005839B4C876BE9F3F9A9999999999E93F73
:100FA0002D431CEBE2368A3F4BC8073D9B558F3FD4
:100FB000CDCCCCCCCCCCF43FB2632310AFEB573FBD
:100FC000D2FBC6D79E59523F00000000000000002F
:100FD00000300240EC0900200000D03F0000D83F64
:100FE0000000E03FAFF300802DE9F041074688465E
:100FF00015461E462A4C20462921002200F0B0FF4B
:101000002046802100F0B6FF2046032100F0B2FF09
:101010002046032100F0ACFF204600F0A5FF002889
:10102000FAD01F4C204600F09FFF0028FAD14FF461
:10103000CD70FFF74DFA29208C21FFF7E3FBC8F8AC
:10104000000029208D21FFF7DDFB386029208E214B
:10105000FFF7D8FB306029208F21FFF7D3FB2860F2
:101060000F4C20462921002200F07AFF20468021E3
:1010700000F080FF2046002100F07CFF2046032185
:1010800000F076FF204600F06FFF0028FAD0044CF5
:10109000204600F069FF0028FAD1BDE8F08100BFCA
:1010A0000030024000000000F0B583B007460E4655
:1010B000394D28460821002203F0CAFE374C20464D
:1010C000AA2104F0D5F820460DF1020104F0D8F869
:1010D000A020FFF7FDF9284608210A4603F0B8FED4
:1010E0002820FFF7EBF928460821002203F0B0FE84
:1010F0002046002104F0BCF8204601A904F0C0F805
:101100002046002104F0B4F820460DF1060104F059
:10111000B7F84FF4A570FFF7DBF9284608210A4617
:1011200003F096FEBDF80400C0F30D000BF0D8FDEF
:1011300000221B4B0BF03AFE11A3D3E900230BF066
:101140005FFFC7E90001BDF8060080080BF0C8FD8D
:101150000DA3D3E900230BF029FE09A3D3E9002353
:101160000BF04EFF00220F4B0BF06CFC08A3D3E9F1
:1011700000230BF01BFEC6E9000103B0F0BD00BF69
:101180000000000000FFCF400000000000A064400D
:10119000333333333333F13F00500240009000408B
:1011A00000005940000044402DE9F04383B08046E0
:1011B0008946224D28460821002203F049FE204C92
:1011C0002046AA2104F054F820460DF1060104F04F
:1011D00057F8A020FFF77CF9284608210A4603F0BB
:1011E00037FE2820FFF76AF928460821002203F07D
:1011F0002FFE2046002104F03BF8124F20463946CE
:1012000004F03EF82046002104F032F80E4E20464D
:10121000314604F035F84FF4A570FFF759F9284628
:1012200008210A4603F014FE3B88A9F800303388F1
:10123000A8F8003003B0BDE8F08300BF00500240C2
:10124000009000400A0C00200C0C002010B5002378
:101250001C4A13604FF464321B4C1A4852F8041BAA
:1012600044F82310013303600A2BF7D1174C164BB7
:101270001B68236003F0F4F8FFF700F8FFF710F99C
:1012800003F0EEF8124BA3FB0030C00803F04AF85D
:10129000FFF734F80020FFF709F80020FFF780F887
:1012A000FFF794F8216801440020FFF795F8182013
:1012B000FFF73CF807480D21FFF796F8FFF7BAF85B
:1012C00010BD00BFA40C0020100C0020000F002057
:1012D000CDCCCCCC4804002008B50020FFF760F846
:1012E000FFF718F80120FFF7B1F8FEF7D3FF08BDAC
:1012F0002DE9F043ADF21C5D04460E468E4B93E89B
:1013000003002C90ADF8B4108C4B93E803002A90A6
:101310008DF8AC1023AD8A4F0FCF0FC597E80700AB
:1013200003C52A801DAD874F0FCF0FC597E8030077
:1013300045F8040B297015AD834F0FCF0FC597E803
:101340000F0007C525F8023B1B0C2B7010AD7F4F1B
:101350000FCF0FC53B682B800AAD7D4F0FCF0FC558
:1013600097E8030085E8030002AD7A4F0FCF0FC561
:1013700097E80F0007C52B70774B1B68ADF804305A
:101380001B0C8DF806303B23ADF800300020FFF732
:10139000B9FA0120FFF7B6FA05460220FFF7B2FAC4
:1013A00007460420FFF7AEFA80460520FFF7AAFAA9
:1013B00081460620FFF7A6FA684BA3FB0012D2086D
:1013C000D1B2A3FB01CE4FEADE0E0EEB8E0EA1EBE7
:1013D0004E013031217002EB8202A0EB4200C0B21C
:1013E000A3FB0012D20802EB8202A0EB42003030D5
:1013F00060702D20A070A3FB0912D208D1B2A3FB0C
:1014000001CE4FEADE0E0EEB8E0EA1EB4E01303117
:10141000E17002EB8202A9EB420909F1300984F87C
:1014200004906071A3FB0812D208D1B2A3FB01E0C3
:10143000C00800EB8000A1EB40013031A17102EB4C
:101440008202A8EB42085FFA88F8A3FB0812D208D0
:1014500002EB8202A8EB420808F1300884F807800A
:1014600000202072A3FB0712D208D1B2A3FB01CE49
:101470004FEADE0E0EEB8E0EA1EB4E0130313170D5
:1014800002EB8202A7EB4207FFB2A3FB0712D208CE
:1014900002EB8202A7EB4207303777705F22B2700F
:1014A000A3FB0512D208D1B2A3FB01E7FF0807EBAB
:1014B0008707A1EB47013031F17002EB8202A5EB07
:1014C0004205EDB2A3FB0523DB0803EB8303A5EB89
:1014D0004303303333717071214B22789A60627804
:1014E000DA60E2781A6122795A61A2799A61E27926
:1014F000DA6132781A6272785A62F2789A623279D4
:10150000DA62B8A904F044FE002840F023812046A6
:1015100005F06CF9204605F04FF8304605F066F905
:10152000304605F049F82FA80E49122204F042FE79
:10153000002840F00C8117E06CD5000074D5000045
:101540007CD5000098D50000B0D50000D0D50000B3
:10155000E4D50000FCD500001CD60000CDCCCCCCDE
:101560004804002060D500002CA80BF0CBFF0246F9
:101570002FA82CA92EAB04F0D9FE68460BF0C2FFB1
:1015800002462FA869462EAB04F0D0FE2AA80BF025
:10159000B9FF02462FA82AA92EAB04F0C7FE684661
:1015A0000BF0B0FF02462FA869462EAB04F0BEFE3A
:1015B00015A80BF0A7FF02462FA815A92EAB04F023
:1015C000B5FE68460BF09EFF02462FA869462EAB7B
:1015D00004F0ACFE1DA80BF095FF02462FA81DA934
:1015E0002EAB04F0A3FE68460BF08CFF02462FA83A
:1015F00069462EAB04F09AFE23A80BF083FF024647
:101600002FA823A92EAB04F091FE68460BF07AFFB9
:1016100002462FA869462EAB04F088FE10A80BF0F6
:1016200071FF02462FA810A92EAB04F07FFE68467A
:101630000BF068FF02462FA869462EAB04F076FE39
:101640000AA80BF05FFF02462FA80AA92EAB04F0F0
:101650006DFE68460BF056FF02462FA869462EAB7A
:1016600004F064FE02A80BF04DFF02462FA802A969
:101670002EAB04F05BFE68460BF044FF02462FA839
:1016800069462EAB04F052FE02A80BF03BFF024667
:101690002FA802A92EAB04F049FE68460BF032FFDA
:1016A00002462FA869462EAB04F040FE02A80BF0BC
:1016B00029FF02462FA802A92EAB04F037FE684688
:1016C0000BF020FF02462FA869462EAB04F02EFE39
:1016D00002A80BF017FF02462FA802A92EAB04F0B8
:1016E00025FE68460BF00EFF02462FA869462EAB7A
:1016F00004F01CFE02A80BF005FF02462FA802A969
:101700002EAB04F013FE68460BF0FCFE02462FA839
:1017100069462EAB04F00AFE02A80BF0F3FE024667
:101720002FA802A92EAB04F001FE68460BF0EAFEDA
:1017300002462FA869462EAB04F0F8FD01A80BF075
:10174000E1FE02462FA801A92EAB04F0EFFD2FA861
:1017500004F028FF0020014604F01AFD0DF21C5D84
:10176000BDE8F08338B5094C204605F07BF92046EA
:1017700005F08CF9064D2846062106F085FD204629
:101780002946002206F09CFD38BD00BFBC0B00209E
:10179000D00B002010B5054C204605F077F9204607
:1017A00006F076F8204605F0A7FA10BDBC0B002025
:1017B00070B52DED028B84B005460C46284E3046A0
:1017C00005F064F904EBC40430462649214406F0D0
:1017D00009FA304601A905F065FD01A8092108F0C4
:1017E000F9F940B39DF805209DF8040000EB0223B1
:1017F0009BB2D2090EBF1B09C3F30A13A3F5006302
:1018000007EE903AB8EEE78AC0F381000BF068FA71
:101810000022154B0BF0CAFA0BF0A0FD07EE900A60
:1018200078EE277A17EE900A0BF06CFAC5E9000102
:10183000322002F077FDD5E9000107A3D3E90023A8
:101840000BF03AFD003018BF0120404204B0BDEC5F
:10185000028B70BDAFF300800000000000FC9F40D1
:10186000BC0B0020D20B00200000D03FAFF3008063
:101870002DE9F04F2DED028B85B0029053EC102B2B
:101880008DED000B10EE100A19460BF029FD20B16A
:10189000AB4B1868029B186048E1DDE9002316464F
:1018A00023F00047104639464FF0FF32A54B0BF0AE
:1018B00017FD60B9304639464FF0FF32A14B0BF0AF
:1018C000F1FC20B9A04B1868029B18602EE1DDE9FD
:1018D0000001002200230BF0D1FC20B19B4B1B88A0
:1018E000029A138022E1DDE90001002200230BF0BF
:1018F000CFFC003018BF01200646002800F0098107
:10190000DDE90001024601F10043CDE9002343EC8B
:10191000102B09F01DFC51EC100B0BF0F7FC0446EA
:101920000D2809DC08280ADC14F1080FACBF0023DD
:10193000012303932EB90AE00123039301E001235D
:101940000393029A02F1010A2D23137006E0DDF8D9
:1019500008A003E0DDF808A001230393039BFBB17B
:10196000002C09DA20460BF0BBF90022784B0BF073
:1019700069F80BF0CBFC044620460BF0B1F99FED63
:101980006E0B41EC110B09F06BFCDDE9000153EC2F
:10199000102B0BF035FBCDE900012546002409E0B2
:1019A00020460BF09DF90022694B0BF071FC0028DA
:1019B00018BF00249FED608B57E020460BF090F994
:1019C000B0EE480AF0EE680A41EC110B09F048FC51
:1019D00057EC106B10EE100A3946002200230BF072
:1019E00075FCA0B327F00049304649464FF0FF325E
:1019F000544B0BF075FC38B9304649464FF0FF3276
:101A0000504B0BF04FFC10B3DDE9000132463B4672
:101A10000BF0F6FA41EC100B09F00AFB51EC100B3D
:101A20000BF074FC83460BF05BF932463B460BF03F
:101A3000BDF902460B46DDE900010BF003F8CDE9E4
:101A400000010BF1300B8AF800B00AF1010A5CB911
:101A5000DDE90001002200230BF038FC20B12E2329
:101A60008AF800300AF1010A013CDDE90001394B36
:101A7000D3E90C230BF02AFC00289ED1002C9CDA21
:101A80005346039A002A40D065228AF80020002D90
:101A900004DD991C2B228AF8012006E0991C2D22D6
:101AA0008AF801206D42002D2CDD0C462A4E86FB63
:101AB0000532EB17C3EBA20303EB8302A5EB420550
:101AC000303504F8015B1D46601A002BEFDC8246BE
:101AD000211A451E002D17DD0C460844002610F87B
:101AE000012C23785A40227010F8013C534000F832
:101AF000013D2278534004F8013B0136013DAE42DE
:101B0000EDDB01E04FF0000A8A4400238AF8003040
:101B10000CE09DED000B09F01BFB51EC100B0BF0E2
:101B2000F5FB04460D283FF715AFFDE6029805B01A
:101B3000BDEC028BBDE8F08F0000000000002440E7
:101B400098D60000FFFFEF7F9CD6000074DE0000F7
:101B50000000F03F0004002067666666AFF3008077
:101B60002DE9F0432DED028B9BB004463023ADF8F8
:101B700064303B23ADF8603000260027CDE90667CE
:101B8000CDE90467A14B019315A8FEF7C5FE12A885
:101B9000FEF72AFF04A806A9FFF786FAFEF78CFFD6
:101BA00010EE105AFFF778F8B0EE408AF0EE608A37
:101BB00028460BF0A7F841EC100B10A8FFF758FED1
:101BC0000EA89DED040BFFF753FE0CA89DED060B30
:101BD000FFF74EFE0AA8B0EE480AF0EE680AFFF7DB
:101BE00047FE204615A90BF00FFC204618A90BF064
:101BF0000BFC204612A90BF007FC204618A90BF09D
:101C000003FC20460CA90BF0FFFB204618A90BF0A3
:101C1000FBFB20460EA90BF0F7FB204618A90BF0A2
:101C2000F3FB204610A90BF0EFFB204618A90BF0A0
:101C3000EBFB20460AA90BF0E7FB204618A90BF0A6
:101C4000E3FB204619A90BF0DFFB204618A90BF097
:101C5000DBFB0120FEF75AFDFFF784FDFFF79AFD3D
:101C60006420FEF72BFC204601A90BF0CDFB20469B
:101C700018A90BF0C9FB05254FF000094FF001082A
:101C800002A84146FFF794FDB0F1FF3F02D109F1F0
:101C9000010907E030463946DDE902230AF0D4FEA7
:101CA00006460F46013DEBD1B9F1050F08D120469C
:101CB00001A90BF0A9FB204618A90BF0A5FB14E025
:101CC000304639460022524B0BF09AF941EC100B8A
:101CD000CDE9020108A8FFF7CBFD204608A90BF0CB
:101CE00093FB204618A90BF08FFB204601A90BF0AF
:101CF0008BFB204618A90BF087FB05254FF0000948
:101D0000002600274FF0020802A84146FFF750FDC9
:101D1000B0F1FF3F02D109F1010907E03046394631
:101D2000DDE902230AF090FE06460F46013DEBD1A5
:101D3000B9F1050F08D1204601A90BF065FB20463B
:101D400018A90BF061FB53E0304639460022304BB6
:101D50000BF056F941EC100BCDE9020108A8FFF792
:101D600087FD204608A90BF04FFB204618A90BF071
:101D70004BFB3DE002A84146FFF71AFDB0F1FF3FE3
:101D800002D109F1010907E030463946DDE90223B5
:101D90000AF05AFE06460F46013DEBD1B9F1050F98
:101DA00008D1204601A90BF02FFB204618A90BF003
:101DB0002BFB14E0304639460022154B0BF020F97E
:101DC00041EC100BCDE9020108A8FFF751FD2046B8
:101DD00008A90BF019FB204618A90BF015FB2046AB
:101DE00001A90BF011FB204618A90BF00DFB07E031
:101DF00005254FF00009002600274FF00408B9E739
:101E00001BB0BDEC028BBDE8F08300BF4552520011
:101E10000000144010B4421EC41D017A12F8013FA4
:101E20000B440372A242F8D15DF8044B704700BF27
:101E3000F0B589B02E4C2F4D20462946FFF7B4F956
:101E40002A8823882C4C3027277640216176C2F3DC
:101E50000521A176E2761A0A227763770025A57715
:101E6000E57784F8205004F118063046FFF7D2FFDA
:101E70003046092103F0F2F83220FEF71FFB07A8D5
:101E800006A905AAFEF7A2FE277642236376059BE4
:101E9000A376079BE376069B23776577A577E5779F
:101EA00084F820503046FFF7B5FF3046092103F093
:101EB000D5F804A803A902AA01ABFFF795F8277685
:101EC00043236376049BA376039BE376029B2377ED
:101ED000019B6377A577E57784F820503046FFF7BC
:101EE00099FF3046092103F0B9F809B0F0BD00BFF1
:101EF000080C0020A80B0020EC090020036A43F026
:101F000010030362704700BF70B504460D461646C5
:101F1000FFF7F4FF0E4A0F4B002E18BF1A4602EBD4
:101F2000820292006B1E1344B3FBF2F2013AE260AC
:101F3000D4F8C03F13F0010F09D0074B2B44074AD8
:101F4000A2FB0323DB0D013B43F08003E36070BD84
:101F5000A0860100801A06007F4737017DD04469C2
:101F600042EA410202607047406800F00100704799
:101F700041607047816070478068704710B5194BA9
:101F800001221A70DC69402C28BF40249A69D96963
:101F9000091BD9611119996113480021234602F0E8
:101FA00045FD402C06D1104800214FF4817202F00B
:101FB00059FD10BD04220B4B1A700B4800214FF441
:101FC000857202F04FFD094B1B681B685B693BB1D2
:101FD000044A116A21B11446506C984700232362C9
:101FE00010BD00BF180C002000000540680C002048
:101FF00010B582B004460B4800210A4602F006FDE7
:102000006368002BB4BF0023A3688DF80730012359
:10201000E3610DF10703A3610020FFF7AFFF02B0FA
:1020200010BD00BF0000054038B504460D46064807
:102030000021012202F0EAFC6B8843F00043636058
:102040000423237038BD00BF000005402DE9F04F88
:1020500085B0554B02221A70544A126893F8361014
:10206000926852F82190DA69402A28BF40229346AC
:102070009B8E6BBB4C4B93F833305BBB4A4B9A69DE
:1020800001AB1068516803C3127A1A70484600F019
:10209000DFFDADF806005E46092E28BF092644483C
:1020A000002101AA334602F0C1FCD9F804301B68B4
:1020B0001B88B34206D13C4B00229A86012283F84A
:1020C000332002E0F3B2384A9386C6EB0B0602E0F7
:1020D000164600E016464EB3334DDFF8D4A04FF05D
:1020E000000895F83320D9F8043053F82270AB8EED
:1020F0003C88E41AB44228BF34467A6850464146C8
:102100001A44234602F092FC361BAB8E53FA84F439
:10211000A4B2AC863B88A34206D195F83330013394
:1021200085F83330A5F83480002EDAD11E4BDA69F9
:10213000CBEB0202DA6193F8333099F800209A422F
:1021400002D80021184AD161174AD26942B1164A11
:10215000D9F8041051F82310938E49680B44936109
:10216000BBF1400F06D1124800214FF4817202F0FA
:1021700079FC15E00E4800214FF4857202F072FCE4
:102180000A4B1B681B685B693BB1074A116A21B1A6
:102190001446506C9847002323620422024B1A70A5
:1021A00005B0BDE8F08F00BF180C0020680C0020BF
:1021B000000005403C220D4B1A640D4B1A680D4B74
:1021C00013400D4A934202D13A22084B1A64074B3E
:1021D00000229A6401219960D9601A7083F8242042
:1021E00083F8382083F83720704700BF180C002090
:1021F00000E00F400000FF7000000A1038B50C46E8
:10220000544B1960544B5A64FFF7D4FF534B1B785F
:10221000032B03D10022514B1A7001E0022B59D03D
:102220004F4D284602F03AF8284602F057F802F0DF
:10223000DFF94C4B196829B94B484FF4407202F052
:102240005BFC04E048484FF4007202F055FC474B39
:102250001B686BB1444802F099FC444B1B6813F0B7
:10226000100F414814BF0021012101F01BF902E0C9
:102270003D4802F093FC394B1B78052B03D13A48BB
:1022800002F022FC03E013B9374802F021FC0022DF
:10229000324B1A70304BDB6C13F0010F0FD0324D04
:1022A00028460C2102F0A6FC2846362102F0BAFC92
:1022B000284602F0A3FC0122274B9A640AE02A4D2B
:1022C000284602F0A3FC2846002102F093FC0022DD
:1022D000214B9A64002001F08FFC1F4DE86301F050
:1022E0004DFDEB6803F18043013BA26852F82330B7
:1022F0005B681B685B68DB7903F0C003C02B06D109
:1023000095F8243043F0010385F8243006E0124AA2
:1023100092F8243023F0010382F824300F4B1B780D
:10232000022B16D0104C204602F0AAF9204602F0EB
:10233000E1F920462F2102F08DF920464FF0FF31C0
:1023400002F0CCF9204602F051FA034B186C02F06F
:10235000BBFE38BD680C0020180C0020450400208E
:10236000002800F04004002000000540100A002072
:1023700010B5114B186C02F0DDFE01F017FD0022C4
:102380000E4B1A600E4C204640F2FF3102F04CF921
:1023900020464FF0FF3102F093F9204602F02CFA6C
:1023A000204602F06DF9204602F0A4F902F028F967
:1023B000044801F0A5FF10BD180C0020680C002097
:1023C00000000540002800F0034B032018709961BD
:1023D0001A62DA61704700BF180C002008B5044B80
:1023E0009961DA611A620020FFF7C8FD08BD00BFDD
:1023F000180C002008B5044800210A4602F0BAF97A
:102400000522024B1A7008BD00000540180C002080
:1024100000B583B002AB402243F8042D15480021DB
:10242000154A02F0C9FA019B0BB3144B1B7913F048
:10243000600F0DD0124B1B681B685B6823B1114AFB
:10244000506C0D49984712E00020FFF7D3FF0EE0D3
:102450000A4B5B790C2B07D80B4A52F823301BB17F
:1024600008480549984702E00020FFF7C3FF03B082
:102470005DF804FB00000540140A0020100A00204B
:10248000680C0020180C0020A0D6000008B50448F5
:102490000021012202F0BAFA0020FFF7ABFF08BDCD
:1024A000000005402DE9F04782B081460D46244BDF
:1024B000D3F800A023480021012202F0A7FAD9F89E
:1024C000083003F18043013BDAF8082052F823601A
:1024D0003046042100F0CCFB58B3804600244FF076
:1024E000FF37304621463A4601AB00F009FC03466F
:1024F000E0B18278A988914218D1C1786888884271
:1025000014D109EB0200017448463146DB7800F033
:102510003FFE88B1DAF800309B686BB1A9886A8801
:102520000948406CC9B2D2B2984705E0013444452D
:10253000D7D10020FFF75EFF02B0BDE8F08700BFF3
:10254000680C002000000540180C002030B583B056
:1025500004460D46104800210A4602F057FA636807
:10256000002B03DA00238DF807300BE0AB88072B34
:1025700004D823441B7C8DF8073003E00020FFF7CC
:1025800039FF07E00123E3610DF10703A361002098
:10259000FFF7F4FC03B030BD0000054070B5044601
:1025A0000E461F4B1D681F480021012202F02EFA23
:1025B00073886A68527C9A4203D20020FFF71AFFA0
:1025C00070BDA3601BB3738803F18043013BAA680D
:1025D00052F823305B681B685A6894F8373063B947
:1025E000D37903F0C003C02B94F824300CBF43F020
:1025F000010323F0010384F82430738803F180433E
:10260000013BAA68204652F8231000F0F1FC2B6829
:10261000DB681BB1044A506CA168984770BD00BFCD
:10262000680C002000000540180C002008B5044884
:1026300000210A4602F0EAF90020FFF7DBFE08BDA0
:1026400000000540F8B504460E46474B1F68474852
:1026500000210A4602F0DAF973881A0A022A0AD01F
:10266000032A26D0012A63D17B68A3617B681B788B
:10267000E361002368E0DDB27B685B7CAB4206D897
:102680000020FFF7B7FE0023A361E3615CE0BB68B5
:1026900053F82500002384F83330A38643681B6871
:1026A0005B68A36100F0D4FAE06184F8365001233E
:1026B0004AE0B6F804E0DAB22B4B1B683BB3D968AA
:1026C00029B34AB30D682978023901EBD171491059
:1026D0001869431EB3FBF1FC01FB0CF30133984274
:1026E00015D1A1B16B88734507D000230CE005EB31
:1026F00043004088704507D100E000230CFB032312
:10270000B3F1FF3F09D102E001339942EFD100203C
:10271000FFF770FE002317E00023FA6852F8232029
:10272000A261FA6852F823301B78E36100230BE0C2
:102730003B681B6823B10E4A506C31469847F8BD80
:102740000020FFF757FEF8BDA26962B1E169F28887
:10275000914288BFE2611BB90020FFF70FFCF8BD72
:102760000020FFF773FCF8BD680C00200000054056
:10277000180C002038B505460C461E4800210122E1
:1027800002F044F9237813F01F0302D0022B0FD07C
:102790002BE0638813F0010F06D095F8243043F046
:1027A000020385F8243038BD0020FFF723FE38BD32
:1027B000A38803F07F014A1E92B2062A03D90020A3
:1027C000FFF718FE38BD62885AB983F08003C3F35F
:1027D000C01305EBC305ED1A0D44012385F8243021
:1027E00038BD0020FFF706FE38BD0020FFF702FECF
:1027F00038BD00BF0000054038B504460D462448EA
:102800000021012202F002F92B7813F01F0302D0FD
:10281000022B0FD038E06B8813F0010F06D094F82C
:10282000243023F0020384F8243038BD0020FFF761
:10283000E1FD38BDAB8803F07F014A1E92B2072A42
:1028400003D90020FFF7D6FD38BD6A88C2B983F0EE
:102850008003C3F3C01204EBC2039B1A0B44002095
:1028600083F8240032B90A4809014FF4005201F0FC
:102870009BFF38BD06480901002201F095FF38BDD5
:102880000020FFF7B7FD38BD0020FFF7B3FD38BDCE
:102890000000054030B583B004460D461E480021B7
:1028A0000A4602F0B3F82B7803F01F03012B08D07F
:1028B00013B1022B09D020E094F82430ADF8063093
:1028C0001FE00023ADF806301BE0AB8803F07F0269
:1028D000511E89B2062903D90020FFF78BFD18E0AD
:1028E00083F08003C3F3C01304EBC301CB1A1A4473
:1028F00092F82430ADF8063003E00020FFF77AFDAF
:1029000007E00223E3610DF10603A3610020FFF756
:1029100035FB03B030BD00BF00000540042904D1E1
:10292000034B1B681360012070470020704700BFF5
:10293000100A002008B5114B93F83830EBB10F4A5C
:1029400092F839300133DBB282F839300A2B03D1E7
:102950000B48002101F05CFE084B93F83930142B32
:102960000BD10022054B83F83820064B1B681B68EF
:102970001B6A13B1014A506C984708BD180C00201F
:1029800000000540680C002030B583B0044636488E
:10299000002101F0B5FE05462378DBB2052B61D896
:1029A000DFE803F0171E2226035600232370636816
:1029B000002B07DA636823F00043636061682A48EC
:1029C00001F020FF15F0010F4CD00020FFF720FD93
:1029D00048E010F0010F45D00020FFF719FD41E05D
:1029E0000020FFF7CBFA3DE00020FFF72FFB39E096
:1029F000E369402B8CBF4023E36901931A4800210F
:102A0000A26901AB01F0D8FFE3693F2B13D804237F
:102A10002370164B1B681B681B6933B1216A21B1F7
:102A2000134A506C9847002323620F48002101226B
:102A300001F0ECFF04E00C4800210A4601F0E6FF3B
:102A40000199A2690A44A261E3695B1AE36109E0A2
:102A500010F0040F06D004480021042201F05AFEB1
:102A60000023237003B030BD00000540680C002037
:102A7000180C002010B5044690F8243023F002030F
:102A800080F82430002380F838300A4B1B681B681C
:102A90009B6913B1084A506C9847E368A36004F13E
:102AA0000F0304F11700002203F8012F8342FBD12A
:102AB00010BD00BF680C0020180C002070B5514BF1
:102AC0001B681BB9504801F097FE70BD0C464F4B78
:102AD0005D6C11F0040F02D01846FFF7CBFF14F025
:102AE000010F06D0474B1B681B68DB690BB12846FA
:102AF000984714F0020F06D0424B1B681B681B6AF4
:102B00000BB12846984714F0200F06D03D4B1B68A8
:102B10001B685B6A0BB12846984714F0080F12D067
:102B20003B4A1368013313603A4C636C01336364AE
:102B30003648FFF7FFFE636C052B04D10022626468
:102B4000052001F05BF9304802F068F82F4B9B6CD0
:102B5000022B13D100F01403102B22D1294B1B6838
:102B60001B68DB6A1BB12846152100229847012209
:102B7000264B9A64244802F041F81EE0012B10D144
:102B800000F01403042B0CD11E4B1B681B68DB6A7E
:102B90001BB1284614210022984702221B4B9A643D
:102BA0000BE010F0020F08D0164B1B681B68DB6AA5
:102BB0001BB12846162100229847134801F09AFDC0
:102BC000044610F0010F04D01048FFF7DDFE24F09A
:102BD00001040E4BD86BD0F8FC309847064628B15C
:102BE0000A4BD86BD0F8F83031469847054B1B6834
:102BF0001B689B6A23B104B916B128462146984741
:102C000070BD00BF680C002000000540180C0020BB
:102C1000780B0020100A002070B413781A440B6857
:102C20009E00446854F823502C886D682C44A242BE
:102C30000AD301330B600278934204D243681E44E6
:102C400073685A6800E00022104670BC704700BFED
:102C5000017851B1436803EB8101002053F8042B44
:102C6000128810448B42F9D170470020704700BF92
:102C7000F8B503788BB10F460546002634466B68DD
:102C800053F82430586819883A4608F0FFF806448B
:102C900001342B78A342F2D800E000263046F8BD7C
:102CA0002DE9F84F047844B39B4690468946064682
:102CB00000273C464FEA840A736853F8245068683A
:102CC00029884A4608F0E2F8384440450DD9CBF847
:102CD0000040736853F80A30586819884A46C7EBB1
:102CE000080308F0EBF8BDE8F88F013407463378A5
:102CF000A342DFD80020BDE8F88F0020BDE8F88FA0
:102D00002DE9F04182B004460D4617469846B2F1CF
:102D1000FF3F04D104212A46FFF7C2FF1EE0CDB2D7
:102D200043681B685A6800230193B2B11E4653786A
:102D3000042B0AD19378AB4207D1B74204D1019B4F
:102D4000C8F80030104609E00136204601A9FFF717
:102D500063FF02460028EAD100E0002002B0BDE88F
:102D6000F08100BF70B582B005461E4601ABFFF78B
:102D7000C7FF90B102460379B34210D900245378BB
:102D8000052B02D1B4420CD00134284601A9FFF72B
:102D900043FF02460028F2D104E0002002E00020B8
:102DA00000E0104602B070BD40F601220A4B1A60E6
:102DB000143B1860094A08331A601A46136813F066
:102DC000020FFBD1064B1A6840F601231A4214BFCA
:102DD0004FF0FF300020704714D00F40020042A493
:102DE0000CD00F402DE9F04142F201641A4B1C60F7
:102DF00032B31446DFF87080DFF870E0174E184FDA
:102E0000DFF86CC000E0184621F07F03C8F80030FE
:102E10000346081A03E053F8045B9551043C191863
:102E200011F07C0202D1DEF800500DB9002CF2D175
:102E3000C7F800C03A6812F0010FFBD1002CE2D1B4
:102E4000084B1A6842F201631A4214BF4FF0FF3078
:102E50000020BDE8F08100BF14D00F4000D10F402A
:102E600020D00F400CD00F4000D00F4030D00F408A
:102E7000010042A4F0B4154B1B68154A1A40154CCA
:102E8000A242154D05F140031ABF1D460C26082627
:102E90002B68834213D106E01746083255F83340B9
:102EA000844207D100E02F467868B1F57F4F0AD100
:102EB000013008E001339E42EED8002003E005F126
:102EC00008020023F6E7F0BC704700BF00E00F40A7
:102ED0000000FF7000000A10D4D60000C36821F083
:102EE000FE01C905C90D1943C1607047C36823F4C9
:102EF000807323F00103C3600B0E0360114B1A684B
:102F0000114B1340114A934211D1CBB243F40073D9
:102F100001F4702243EA1213436001F47003C1F319
:102F2000072141EA132141F4007181607047CBB25F
:102F300043F400734360C1F3072141F400718160E1
:102F4000704700BF00E00F400000FF7000000A1053
:102F500011F0FF0F18BF826211F47F4F18BFC262D9
:102F6000704700BF38B51546FFF784FF0446294671
:102F700002F08EF8204602F0A7F838BD83691943A5
:102F800081617047836923EA01018161704700BF55
:102F900009B1006A7047C069704700BF416270475D
:102FA00010B4847804F00F040C608188C1F30A0126
:102FB000116090F90220002AB4BF4FF400510021A3
:102FC0001960C27802F00302022A06D0032A08D050
:102FD00052B941F44071196006E041F48071196002
:102FE00002E041F4007119605DF8044B704700BFC6
:102FF0002DE9F04F95B00D460DF1080810A9434694
:1030000000221A605A6008338B42FAD12846052103
:10301000FFF72EFE064628460421FFF729FE8146CB
:1030200036B30024052728463946224610ABFFF761
:1030300037FE837803F00F03139390F90220D243F5
:10304000D20F013B062B7ED8808802EB43010DF1A5
:10305000500E0EEB810151F8481C884205D902EB55
:1030600043030EEB830343F8480C0134B442DAD136
:10307000B9F1000F6FD04FF0000BDFF810A1284618
:1030800059464FF0FF3210ABFFF73AFE0646E0B16B
:10309000C378D3B90779C7B100242846B178F2784C
:1030A0002346FFF75FFE68B113A912AA11ABFFF721
:1030B00077FF1399002948D050460901129A119BB5
:1030C00001F0A4FB0134A742E7D10BF1010BCB4582
:1030D000D5D140E04746D8F80020002A46D0082A3B
:1030E00048D9012306FA03F5AA4202D812932DB952
:1030F0002DE00133092BF5D1002043E04FF40052BD
:103100000092504621014A4601F0C8FBA9442DE037
:1031100006FA03F5954202D312932DB919E0013353
:10312000092BF5D100202DE000220092504621010C
:103130004A4601F0B3FBA944013408F10808082C01
:10314000C8D101201EE000201CE000201AE0002071
:1031500018E0002016E04FF0400901240826DFF8AF
:103160002CA0B7E7082A09D90123D1E77A68002AF9
:10317000E2D0F7E7002312933546BFE7002312930E
:103180003546D1E715B0BDE8F08F00BF000005401F
:103190002DE9F04784B00E4691469A460846042130
:1031A000FFF766FDA0B3804600244FF0FF3730469E
:1031B00021463A4601ABFFF7A3FD054618B38378D5
:1031C0004B4520D1C37853451DD1077917B300244F
:1031D000DFF84C803046A978EA782346FFF7C2FD35
:1031E00060B1694603AA02ABFFF7DAFE009999B114
:1031F00040460901039A029B01F008FB0134A742F3
:10320000E8D1012009E001344445D0D1002004E098
:10321000002002E0012000E0002004B0BDE8F087BB
:1032200000000540F8B50446036940699847002846
:1032300040D0054604F12006304607F06DFD0746F4
:10324000304607F057FD064617B30346A84228BF8D
:103250002B462363AF4228BF2F46D4F80CC06069C9
:10326000A36AE16A1944BD4221D93A46BE428CBFE5
:1032700000230123E047BE421CD9EA1BF71BE66886
:103280006069E16ABA4228BF3A460123B047F8BDF7
:10329000236BAB420ED1636B13F0010F0AD00022F7
:1032A0002263E5686069E16A0123A847F8BD3A46F0
:1032B0000123E047F8BD00BF10B504460023436377
:1032C0002030A169E26907F0A1FD204610BD00BFD2
:1032D000F8B505460F46144600F12006304607F0C3
:1032E00013FD844228BF044624B1304639462246A5
:1032F00007F07CFD2846FFF795FF2046F8BD00BF8C
:1033000008B5203007F0ECFC08BD00BF70B50E46D4
:10331000144600F12005284607F0ECFC844228BF43
:10332000044624B128463146224607F017FD2046C0
:1033300070BD00BF2DE9F04105460E4690461F4680
:103340008B1E032B00F29580DFE803F00269817782
:103350000378002B40F08D80DFB18269974209D35A
:10336000C36913449F4205D22030414607F016FD41
:1033700000243FE005F12006304607F0C5FC444636
:10338000804528BF044630463946224607F02EFDC8
:1033900030E0036940699847074605F1200420465C
:1033A00007F0C2FC02466B6AE96AEE686869194474
:1033B0000123B047064618B12046314607F0EEFC1F
:1033C000B74212D9204607F0AFFC024678B16B6ACB
:1033D000E96AEE68686919440123B047014640B1C3
:1033E000204607F0DBFC002404E0002402E0002477
:1033F00000E0002405F12006304607F07BFC024681
:10340000AB6AD5F82CE06F68A86802217344B8470E
:103410000146304607F0B2FC2046BDE8F081446822
:103420008068032100221346A047044605F12000CE
:1034300007F060FC2044BDE8F0810378CBB1203078
:10344000414607F09BFC2846FFF7ECFE11E00378AD
:103450007BB9203007F068FC804506D86B6AEA6AC1
:1034600013443B604046BDE8F08100203860BDE871
:10347000F0816C68A868314642463B46A047BDE8EB
:10348000F08100BF08B5054B5970054B5A60012902
:1034900002D80AB10020904708BD00BF44040020B4
:1034A000580A002038B504460D46042101F07EFB81
:1034B00000F0FC0040EA050220460421D2B201F0EF
:1034C00087FB2046072101F071FB00F08F0040EAE6
:1034D000152220460721D2B201F07AFB20460A21AC
:1034E00001F064FB00F01F0040EA154220460A216B
:1034F000D2B201F06DFB38BD013901238B40D0F809
:10350000D420134207D1D0F8D0201340002B14BF91
:103510000420002070470120704700BFD0F8D4304D
:1035200023EA0101C0F8D410704700BFC9B130B41C
:103530000B460022012513F0010F0CD005FA02F111
:10354000D0F8D04024EA0104C0F8D040D0F8D440EC
:103550002143C0F8D4105B0802D00132082AEAD116
:1035600030BC7047704700BF704700BF704700BF56
:10357000704700BF0020704738B504460D4600680C
:1035800001F0DCFA691E6318002283F8882004EB3E
:1035900085056A6001238B40DB43D4F8D0101940C5
:1035A000C4F8D010D4F8D4100B40C4F8D4306A62F8
:1035B00038BD00BF2DE9F0410546884617461E4636
:1035C00090F8883033B100F18803012413F8012FFB
:1035D000A2BB00E000242868214601F0AFFA2B19B5
:1035E00083F8888005EB8405AF6216F0800F18D051
:1035F0000823AB6006F04303012B0CBF0A230C2306
:10360000C5F8903016F0400F07D106F00306012EE2
:1036100003D01423C5F8B0300DE01623C5F8B03040
:1036200009E00A23AB6042F20803C5F8903042F289
:103630001103C5F8B030601CBDE8F0810134062CE0
:10364000C4D10020BDE8F08138B504464D1E0068A5
:10365000294601F073FA2068294601F05BFA01233C
:10366000AB40DB43D4F8D0201A40C4F8D020D4F8C3
:10367000D4201340C4F8D43038BD00BF08B500686A
:10368000013901F047FA08BD08B50068013901F0B9
:1036900039FA08BD70B504460D46406801F080FD5A
:1036A000064610B1606801F045FD013D0123AB40C5
:1036B000D4F8D0201A43C4F8D020D4F8D42022EA79
:1036C0000303C4F8D4302068294601F01BFA2068AF
:1036D000294601F02BFA16B1606801F0F5FC70BDC7
:1036E00012F0030F40F085802DE9F0411D4604469D
:1036F0004F1E0123BB40D0F8D0001843C4F8D000BF
:10370000D4F8D40020EA0303C4F8D43004EB8106D3
:10371000726475662068394601F02CFA20683946D3
:103720002A4601F02DFA736A9D4236D9B5FBF3F2B1
:1037300003FB125303B1013204EB0708206898F829
:10374000881001F0C9F9206898F88810D6F8AC20E4
:1037500001F0D0F873682068394698F8882043F063
:10376000040301F0F3F9736813F0020F07D0206827
:1037700098F888104FF4005201F0E8F806E0E319D9
:10378000206893F88810002201F0E0F8206839469C
:1037900001F0CCF92846BDE8F08104EB0708206869
:1037A00098F88810D6F88C2001F0A4F820683946E3
:1037B00098F88820736801F0C9F9736813F0020F54
:1037C0000DD0206898F888104FF4005201F0BEF830
:1037D0002068394601F0AAF92846BDE8F081E119D0
:1037E000206891F88810002201F0C2F82846BDE850
:1037F000F0810020704700BF08B5006801F092F921
:1038000008BD00BF38B504460D46006801F0AAF9AE
:10381000B0F5807F0ED0013D0123AB40D4F8D42019
:10382000134209D1D4F8D0201340002B14BF042038
:10383000002038BD022038BD012038BD10B5082A4F
:103840000CD14B1C50F8233003F04063B3F1406FB0
:103850000CBF4FF040634FF040431AE0102A0CD1E8
:103860004B1C50F8233003F04063B3F1406F0CBFA2
:103870004FF0BA434FF055430BE04B1C50F8233048
:1038800003F04063B3F1406F0CBF4FF02E434FF095
:103890006A4300EB8104626822F07F421343636055
:1038A000481E194607F060FB10BD00BF10B5022A84
:1038B00012D0042A13D0082A14D0102A15D0202A96
:1038C00016D0402A17D0802A18D0B2F5807F0CBFBE
:1038D0004FF40033002313E04FF4804310E04FF423
:1038E00000430DE04FF440430AE04FF4803307E01B
:1038F0004FF4A03304E04FF4C03301E04FF4E03361
:1039000000EB8104626802F07F4213436360481E4B
:10391000194607F029FB10BDF8B5D0F8D0400025B6
:103920002E46012714F0010F06D0284607F06CFB45
:1039300010B907FA05F31E43640802D00135082DBB
:10394000F0D13046F8BD00BF70B504460D464E1E9E
:1039500030460F2107F0E0FA631993F8881011F050
:10396000800F206801F07F0114BF00224FF4005245
:1039700000F0FEFFA319002283F8882004EB8505E0
:103980006A600123B340DB43D4F8D0101940C4F877
:10399000D010D4F8D4100B40C4F8D4306A6270BD93
:1039A000F8B504460D46406801F0FAFB074610B131
:1039B000606801F0BFFB6E1E0123B340D4F8D02035
:1039C0001A43C4F8D020D4F8D42022EA0303C4F860
:1039D000D430013554F8253003F04063B3F1406F23
:1039E00004EB0603206893F888100CBF00224FF404
:1039F000005200F0ABFF304607F07AFA17B160686A
:103A000001F062FBF8BD00BF3F2B5AD912F0030F43
:103A100059D12DE9F04383B01D46904689460446AE
:103A20004E1E0123B340D0F8D0201A43C0F8D02056
:103A3000D0F8D42022EA0303C0F8D43000EB810789
:103A4000C7F844807D668319006893F8881001F0F8
:103A500027F803467A6802F00851B1F1085F0CBFFD
:103A6000A908294602F04062B2F1406F0091304649
:103A70004FF0010106BF1A464346424607F084FA5A
:103A80007A6A95420FD92644206896F88810B5FBCB
:103A9000F2F201F021F8206896F88810D7F8AC20EF
:103AA00000F028FF07E02644206896F88810D7F831
:103AB0008C2000F01FFF20464946FFF771FF284683
:103AC00003E0002070470020704703B0BDE8F0839A
:103AD00038B504464D1E013150F8213003F04063E3
:103AE000B3F1406F00EB0503006893F888100CBF3A
:103AF00000224FF4005200F03BFF284607F002FA84
:103B00000123AB40DB43D4F8D0201A40C4F8D020C6
:103B1000D4F8D4201340C4F8D43038BDF8B50546E5
:103B20000F4613F080000CBF01240024291991F8DE
:103B30008810002944D104E0291991F8881000293F
:103B40003ED1291981F8887005EB8406B262C0B1B4
:103B5000274AB26003F04302012A0CBF0A220C225A
:103B6000C6F8902013F0400F07D103F00303012B98
:103B700003D01423C6F8B03027E01623C6F8B030BF
:103B800023E01C4BB36042F20803C6F8903042F2C7
:103B90001103C6F8B03028683946224600F084FF89
:103BA00020460F2107F0B8F92046B16807F0DCF98C
:103BB000286839464FF4005200F0DAFE601CF8BD68
:103BC0000234052CB8D90020F8BD286839462246B1
:103BD00000F06AFF20460F2107F09EF92046B168E9
:103BE00007F0C2F928683946002200F0C1FEE5E777
:103BF0000080010C008001C008B53E4B1A683E4BA6
:103C00009A4274D03B4B3C4A1A603C225A603B4A71
:103C1000C3F8D8203A4AC3F8DC203A4AC3F8E42073
:103C2000394AC3F8E020394AC3F8F420384AC3F8C7
:103C3000F020384AC3F8E820374AC3F8EC20374A66
:103C4000C3F8F820364AC3F8FC20364AC3F80021EE
:103C5000354AC3F80421354AC3F80821344AC3F869
:103C60000C21344B1A68344B1340344A934202D12E
:103C70003A22204B5A60204800F038FF01282FD10B
:103C80001C4B2F4AC3F8D8202E4AC3F8DC202E4AFA
:103C9000C3F8EC202D4AC3F8FC202D4AC3F8F420C9
:103CA0002C4AC3F8F0202C4AC3F808212B4AC3F849
:103CB000E8202B4AC3F8E0202A4AC3F8E4202A4A25
:103CC000C3F80C210CE001F8012F43F8042F8342C4
:103CD000F9D1084B0022C3F8D020C3F8D42006E065
:103CE000044800F18701031D24300022EBE701485E
:103CF00008BD00BF600A002000000540AD3800008C
:103D00001D3B0000D13A0000A139000065350000DC
:103D10006935000049390000F93400002D350000F4
:103D2000193900001D35000075350000093A000002
:103D30003D38000000E00F400000FF7000000A1056
:103D400071350000B535000005380000F937000076
:103D5000893600007D360000E1360000793500002C
:103D600095360000493600006D350000024A1368A0
:103D700043F040431360704734EF00E0084B1B787A
:103D80006BB9084B084903F11800002243F8042BD3
:103D900041F8042B8342F9D10122014B1A7070477C
:103DA000700B0020840C00206C0C00200022014BC2
:103DB0001A707047700B002010B40E4B1B682BB1AB
:103DC0000C4A012352F8044F44B900E00023094A89
:103DD00042F82300084A42F8231002E00133062B80
:103DE000F0D1062B4FF0FF3018BF00205DF8044BD8
:103DF000704700BF840C00206C0C0020F8B507460B
:103E0000084A536803445360074C084D04F11806F0
:103E100054F8043B13B12868394698470435B44236
:103E2000F6D1F8BD700B0020840C00206C0C002033
:103E300080B584B0FCF75AFC122001F045F900204F
:103E4000FCF760FDB04C20700120FCF75BFDAF4B30
:103E500018700220FCF756FDAD4B18700420FCF7DB
:103E600051FDAC4B18700520FCF74CFDAA4B1870A7
:103E70000620FCF747FDA94B18702378A52B40F0CE
:103E80007981A24B1B78A52B12D1A54C02260425C3
:103E900020463146324600F0DBFF204629462A46BE
:103EA00000F0D6FF204601210A4600F0D1FFEFE7DF
:103EB00000229C4B1A604FF4643200239A489949BF
:103EC00052F8044B40F8234001330B600A2BF7D122
:103ED000954B1A68954B1A60FCF7DAFA002800F047
:103EE0009A800020FCF7BEFA914B186010F0010F89
:103EF00075D0904C20460D21FCF78AFA8E4BA268B3
:103F00001A70E2685A702D229A702169D97061691D
:103F100019715A71A2699A71E269DA7100251D72EC
:103F2000864B226A1A70626A5A705F229A70A26A7D
:103F3000DA70E26A1A715D71226B7C4B1A608048FC
:103F4000FDF70EFE28467F4902F022F900283DD1F8
:103F500079487D4902F02AFC002833D1764802F0E6
:103F60002BFB7648784902F021FC58BB734802F0DD
:103F700023FB76487649132202F01CF910BB734BE1
:103F80001846D96802F046FBC8B9654802210A46BE
:103F900000F05EFF6A4C204609F0B4FA02466B4E10
:103FA0006C4D304621462B4602F0C0F96A4C207019
:103FB00030466A4902222B4602F0B8F92070634865
:103FC00002F0F0FA0020014602F0E2F85448022123
:103FD000002200F03DFF57480D21FCF705FA544B35
:103FE0001B6813F0080F16D00D20FCF747FA4C4C55
:103FF000204601210A4600F02BFF4FF4FA70FCF72F
:104000005DFA20460121002200F022FF0022494BE8
:104010005A60FDF761F9474C474D484E6368012BE4
:1040200015D12B78A3606B78E360EB7823612B7953
:104030006361AB79A361EB79E361337823627378D1
:104040006362F378A3623379E362FDF7FFF8444BD0
:104050001B68012B0CD100F0D5FF0222404B1A60E7
:104060000120FCF753FBFDF77DFB0520FCF726FA4A
:104070003B4B1B68022BD1D13A4B1B68012BCDD196
:104080000022384B1A60384B5B78342B11D0352B1B
:1040900036D0332BC2D1344BD87999795A791F79DC
:1040A0000097DF7801979B7802930123FCF7F6FBDA
:1040B000B4E72E482C4FBB780370F978417097F81D
:1040C00004E080F802E07A79C2700427244847604F
:1040D000090401EB03631A4402EB0E23134A136035
:1040E0002363234F3B6000237B604FF46430FEF773
:1040F0005BFE38464FF464310822FEF773FE8DE70D
:10410000FDF796FE8AE700BF511100204411002000
:10411000341100205C110020040F00204511002004
:1041200000400240A40C002038110020000F0020A5
:1041300058110020480400201C11002014110020F8
:10414000080F0020C00C0020A80C002060110020E7
:1041500060D50000081100203C11002074D7000039
:104160007C0B00205411002048110020A00C0020DE
:10417000F80E00200022014B1A609CE6A40C0020DF
:1041800038B53548012100F053FE344B186010F06B
:10419000800F19D0324B1B68002B59D1314C20466F
:1041A00004210A4600F054FE4FF4FA70FCF786F939
:1041B00020460421002200F04BFE2B482B49FDF73E
:1041C00097F801222A4B5A60244B1B6813F0400FCA
:1041D00038D0234B1B681BB3224C204602210A46D1
:1041E00000F036FEC820FCF769F9204602210022C3
:1041F00000F02EFE6420FCF761F9204602210A46F9
:1042000000F026FEC820FCF759F90025144B1D606C
:1042100000F01AFF204602212A4600F019FE11E0A4
:10422000104C204602210A4600F012FE4FF4FA70AC
:10423000FCF744F901220A4B1A60204602210022B1
:1042400000F006FE0448054B196800F0F9FD38BD82
:1042500010F0400FC0D1F5E70060004010110020C1
:104260007C0B0020004002401C1100201411002093
:1042700048040020C3B29B0043F08442C0F30720EF
:10428000054B0344C3F3130342EA43131868003099
:1042900018BF0120704700BF00EA0F4082B0C2B2D1
:1042A000920042F08443C0F307200B4A0244C2F359
:1042B000130243EA42120123136000230193019B7E
:1042C0000F2B05D8019B01330193019B0F2BF9D9CB
:1042D0000023136002B0704700E50F40C3B29B009B
:1042E00043F08442C0F30720044B0344C3F3130399
:1042F00042EA431301221A60704700BF00E60F40F4
:10430000C3B29B0043F08442C0F30720044B034434
:10431000C3F3130342EA431300221A60704700BF3D
:1043200000E60F4001387FF4FDAF704770B5454D92
:104330002B68454A116823F4800444F4006441F476
:1043400000662C60166013F0010F16D010F0010FFC
:1043500013D160F001031C404FF480723B4B1A6094
:104360002C604FF40023103D01E0013B69D02A6826
:1043700012F4807FF9D0002B63D024F4FE6400F4A3
:10438000FE63234321F0004222F0700242F40061F8
:104390002F4A02400A4300F0080142EAC1022949BB
:1043A0000B6010310A6023F4005300F400510B43FA
:1043B00022F400524025254C25600A4304D52249A9
:1043C0000A6010390B6003E01E490B6010310A606F
:1043D00023F0F86323F001031E4D05401D4322F036
:1043E000FC5200F0FC54224310F0804F07D045F4FB
:1043F000800522F48002184C044014431DE022F092
:1044000080441AE00A6812F0010F01D1013BF9D192
:1044100025F4006524F400640A4B1D6010331C6011
:104420001020FFF77FFF70BD0C4B1B6813F0010FCE
:10443000EED147F6FF730949E4E710F4006FF3D0BB
:10444000EAE770BD60E00F4070E00F4058E00F40B9
:10445000300000800100C0070000404068E10F40CC
:1044600030B4574B1B68574A116800290FDA01F026
:104470007002202A20D003D8BAB1102A22D089E0B5
:10448000302A00F09180702A00F0918082E003F0E1
:104490003002202A07D003D83AB1102A0ED07BE090
:1044A000302A79D186E0484813E0C3F384124748A4
:1044B00000EB8202106B02E0434800E04448002910
:1044C00007DA00E0424811F4006F05D04FF0FF32E8
:1044D0003DE013F4006F61D13E4A14680432156860
:1044E00005F01F0201325200C5F3042505FB02222C
:1044F000B0FBF2F2C4F30900C4F3892404FB02F414
:10450000A40A00FB024043F48003334A126802F419
:104510007042B2F5804F12D006D8B2F5005F0AD0D3
:10452000B2F5405F09D010E0B2F5E04F09D0B2F526
:10453000104F08D009E0294A09E0294A07E0294A32
:1045400005E0294A03E0294A01E04FF0FF3213F465
:10455000800F1BD0002914DA11F0804F09D011F41C
:10456000006F06D14000C1F386510131B0FBF1F07C
:104570000CE0C1F3C5510131B0FBF1F006E04FF0A2
:10458000FF32C3F3C3530133B0FBF3F0904228BFB3
:10459000104612E0002010E000200EE013F4800F1F
:1045A000EDD14FF0FF32F1E747F230508BE74FF497
:1045B000004088E747F230508BE730BC704700BFBF
:1045C00060E00F4070E00F4000093D0080D7000020
:1045D0000024F40060E10F4010E00F4000B4C40478
:1045E00080F0FA02005A620240787D01002D31010C
:1045F000024A136823F480431360704770E00F4051
:10460000024A136843F480431360704770E00F4020
:1046100021B1437843F0040343707047437803F0BB
:10462000FB034370704700BF11F0FF0F03D0C37A44
:1046300023EA0103C37211F4807F1CBF0023C0F87A
:10464000083411F4007F02D00022014B1A60704739
:104650004804054011F0FF0F03D0C37A0B43DBB2CF
:10466000C37211F4807F1CBF0123C0F8083411F419
:10467000007F02D00122014B1A60704748040540B8
:10468000837ADBB2D0F80C2412F0010F07D043F488
:10469000807390F80C2442F0010280F80C24074A41
:1046A000126812F0010F06D043F4007303490A6840
:1046B00042F001020A601846704700BF4C040540F2
:1046C000C3889BB223EA0103C38003899BB2490CD0
:1046D000490423EA11410181704700BFC3880B439D
:1046E0009BB2C38003899BB2490C490443EA114140
:1046F0000181704743889BB2808843EA004070473D
:104700000144B1F802319BB2B1F8060143EA00401E
:10471000704700BFD9B912F0010F05D090F80231EF
:1047200043F0400380F8023112F0100F05D090F8EA
:10473000023143F0800380F8023112F0040F17D0E9
:1047400090F8023103F0FB0380F80231704708440F
:1047500090F8023102F0240123EA010380F80231CB
:1047600090F8063102F4980223EA124280F80621FA
:10477000704700BF31B990F8023143F0600380F810
:1047800002317047B2F5005F06D100F58170425CDE
:1047900042F010024254704700F58370425C42F0D0
:1047A00020024254704700BF31B990F8023103F043
:1047B000FB0380F802317047B2F5005F0AD100F5C3
:1047C0008170425C02F0CF024254425C42F04002EF
:1047D0004254704700F58370425C02F09F024254DD
:1047E000425C42F080024254704700BF437843F07D
:1047F00040034370704700BF437803F0BF0343702A
:10480000704700BFC9B20170704700BF13F4005F6A
:104810001DD0084492B2A0F8002103F00102D20199
:1048200013F0100F02D042F0140204E013F0080F4E
:1048300018BF42F0100213F4407F08BF42F040025C
:10484000D2B280F80321402380F802317047084437
:1048500092B2A0F8042103F00402002A0CBF002247
:10486000802213F0100F02D042F0280204E013F06F
:10487000080F18BF42F0200213F0200F18BF42F0BB
:10488000100213F4407F08BF42F04002D2B280F819
:104890000721802380F80631704700BF10B4019CC7
:1048A00014F4005F11D0847BE4B2C1F3071181736B
:1048B000DBB280F862308473837BDBB28173C2F336
:1048C000CF02A0F86420837310E0847BE4B2C1F3CC
:1048D00007118173DBB280F863308473837BDBB2B2
:1048E0008173C2F3CF02A0F8662083735DF8044B96
:1048F000704700BF12F4005F11D000F20310435C58
:1049000003F07B0312F0100F18BF43F0040312F002
:10491000010F18BF43F08003DBB24354704700F22D
:104920000710435C03F0370312F0100F18BF43F079
:10493000080312F0040F18BF43F0800312F0020FB7
:1049400018BF43F04003DBB24354704712F4005FDA
:1049500006D000F20310435C43F010034354704749
:1049600000F20710435C43F020034354704700BF3C
:1049700012F4005F06D000F20310435C03F0EF0373
:104980004354704700F20710435C03F0DF034354C5
:10499000704700BF0B4611B101F5837201E04FF47F
:1049A0008172125A12F0010F1DBF00F58470C05AB7
:1049B00080B20020704700BF30B40D4611B101F540
:1049C000837101E04FF48171095A11F0010F04D194
:1049D00000221A604FF0FF3016E000F584714C5B46
:1049E000A4B219688C4228BF0C461C6000F120015B
:1049F00001EB95013CB110190B7802F8013B8242A2
:104A0000FAD1002000E0002030BC70470B4631B9DD
:104A1000002A14BF4823402380F80231704700F574
:104A20008370425C02F0FE024254704730B40029A9
:104A30000CBF0224012400F581756D5C25420BD169
:104A4000203000EB910153B1134412F8014B0C706C
:104A50009A42FAD1002003E04FF0FF3000E000203E
:104A600030BC70470B4631B990F8021111F0020FBB
:104A70000FD1D2B207E000F58171C95C11F0010FCE
:104A80000AD1C2F3072200F58170D2B2C2540020CD
:104A900070474FF0FF3070474FF0FF30704700BF56
:104AA000203000EB9100704710B49200D0F85044D1
:104AB0000F23934024EA0303090991401943C0F8E6
:104AC00050145DF8044B7047032380F81C34704782
:104AD000002380F81C34704700F541706FF04043AC
:104AE00003EB111140F82120704700BFD0F8C00F30
:104AF00000F00F00704700BF01390A43C0F8C82F0B
:104B0000704700BF00F501700901435843F00803E6
:104B10004350704700F501700901435823F0080322
:104B200043507047D0F80002704700BF00F5017095
:104B30000901435843F001034350704700F50170E9
:104B40000901435823F001034350704710B400F5A6
:104B50000170090100244450134343505DF8044B95
:104B6000704700BF00F501700901405800F48070E3
:104B7000704700BF00F5027009014250704700BF46
:104B800000F5037009014250704700BFD0F8C43FE0
:104B900043F48033C0F8C43F704700BFD0F8C43F2F
:104BA00023F48033C0F8C43F704700BF80F875100D
:104BB00000F17602052380F87630137813F0020FA7
:104BC000FBD0002380F8763090F87400704700BF67
:104BD00080F8751080F8742000F17602012380F8C7
:104BE0007630137813F0020FFBD0002380F8763074
:104BF000704700BFC9B280F86213704790F8623303
:104C000043F00D0380F86233704700BF90F86233C1
:104C100003F0FE0380F86233704700BF90F864032E
:104C2000704700BF90F863331943C9B280F863132B
:104C3000704700BF08B50448FFF722FD0146002079
:104C4000FDF73CFF08BD00BF0000054010B412F0A6
:104C5000010F00F58064D0F8003414BF0B438B4380
:104C6000236012F0020F00F58463D0F8202414BFF3
:104C7000114322EA010119605DF8044B704700BF3F
:104C800010B412F0010F00F58164D0F8083414BF9D
:104C90000B438B43236012F0020F00F20444D0F860
:104CA000043414BF0B438B43236012F0040F00F253
:104CB0000C43D0F80C4414BF214324EA01011960CD
:104CC00012F4803F00F5A762D0F8383514BF43F0E6
:104CD000010323F0010313605DF8044B704700BF2C
:104CE0002DE9F043C2F3411C00240F464FF0030EA0
:104CF0003E4641FA04F515F0010F11D0D0F8C45F1B
:104D00004FEA44080EFA08F925EA0905C0F8C45F1D
:104D1000D0F8C45F0CFA08F848EA0505C0F8C45F8B
:104D20000134082CE4D112F0010F00F5A065D0F891
:104D3000004514BF0C43B4432C6012F0020F00F284
:104D40000455D0F8044514BF0C43B4432C6012F052
:104D5000040F00F5A165D0F8084514BF0C43B44317
:104D60002C6012F0080F00F5A365D0F8184514BFA9
:104D70000C43B4432C6012F0100F00F23C54D0F8F6
:104D80003C2514BF0A43B243226013F0010F00F226
:104D90000C54D0F80C2514BF0A43B243226013F020
:104DA000020F00F5A264D0F8102514BF0A43B243E5
:104DB000226013F0040F00F21454D0F8142514BF2D
:104DC0000A43B243226013F0080F00F21C54D0F8DB
:104DD0001C2514BF0A43B243226013F4007F00F283
:104DE0004454D0F8442514BF0A43B243226013F45C
:104DF000407F00F5A864D0F8402514BF0A43B243B1
:104E000022602BB900F5A562D0F82835194305E0DA
:104E100000F5A562D0F8283523EA06011160BDE847
:104E2000F08300BFD0F810341943C0F81014704755
:104E300011B1D0F818047047D0F81404704700BFBF
:104E4000C0F81C14704700BF50F82100704700BF25
:104E500040F82120704700BF38B505460C460022B7
:104E6000FFF7F4FE2846214601220823FFF738FF0A
:104E700038BD00BF38B505460C4601220823FFF7B0
:104E80002FFF284621460122FFF7E0FE38BD00BF74
:104E900038B505460C460222FFF7D8FE28462146C3
:104EA00001220923FFF71CFF38BD00BF38B50546B6
:104EB0000C460222FFF7CAFE28462146012208239B
:104EC000FFF70EFF38BD00BF38B505460C4602227D
:104ED000FFF7BCFE2846214601220823FFF700FF0A
:104EE00038BD00BF38B505460C460022FFF7AEFEC0
:104EF0002846214601220023FFF7F2FE38BD00BFFD
:104F000010B4C0F307420F4B1968012393400B42C2
:104F10000D4B03EBC20214BFD2F88411D2F88011FA
:104F2000D1F82C25C0F307240F23A34022EA030362
:104F300000F00F00A0401843C1F82C055DF8044BA9
:104F4000704700BF6CE00F4044D9000008B501294C
:104F500018D041B148F20302914223D048F2040232
:104F6000914217D025E00122134B1A7013480221F9
:104F70000A46FFF76DFF1248FEF7C2F91148FEF727
:104F8000BFF916E000220C4B1A700C480121FFF704
:104F90005FFF0EE00C4A1068186091889279998042
:104FA0009A7106E0084A1868106099889B79918088
:104FB0009371002008BD00BF880B00200040024014
:104FC00084040020BC0400207C04002000207047E2
:104FD00002290ED110B5084C084821460922FEF7D7
:104FE00095F92378302B02D10122054B1A6000205D
:104FF00010BD0020704700BF48110020BC040020F5
:105000005411002008B53C200B4900F041F83C2029
:1050100000F05AF800F02CF8002005210246FEF7B7
:1050200031FA0648FEF748F90548FEF745F9002031
:10503000044905F087F908BD354C000084040020C0
:10504000BC040020F404002008B53C2000F072F8F5
:10505000014805F09BF908BDF404002008B503469B
:105060000A4602481946FEF733F908BD84040020B9
:1050700008B505F007FF003018BF012008BD00BFCC
:1050800008B505F0FBFE003018BF012008BD00BFC9
:1050900070B40B4B1B680B4EB3420CD0084B1C6812
:1050A00006F51B753346A41BE25843F8042BAB42AC
:1050B000FAD1034B1E60034B43F8201070BC7047BD
:1050C00008ED00E000000020042805D1164A13680E
:1050D00043F4803313607047052805D1124A1368E2
:1050E00043F4003313607047062805D10E4A136855
:1050F00043F48023136070470F2805D10B4A1368CF
:1051000043F00203136070470F280BD9103842098F
:10511000074B03EB8203D3F8BC2000F01F000123F0
:1051200083401360704700BF24ED00E010E000E012
:1051300054DB0000042805D1164A136823F4803399
:1051400013607047052805D1124A136823F4003311
:1051500013607047062805D10E4A136823F4802394
:10516000136070470F2805D10B4A136823F0020320
:10517000136070470F280BD910384209074B03EB17
:105180008203D3F8D02000F01F0001238340136076
:10519000704700BF24ED00E010E000E054DB0000A9
:1051A000042804D1164B186800F480307047052895
:1051B00004D1134B186800F400307047062804D15E
:1051C0000F4B186800F4802070470F2804D10D4B56
:1051D000186800F0020070470F280ED910384209F5
:1051E000094B03EB8203D3F8BC301B6800F01F00AF
:1051F000012202FA00F0184070470020704700BFFB
:1052000024ED00E010E000E054DB000010B4002BBF
:105210000CBF002304234360019BB1FBF3F1002486
:105220000234B1FBF4F3013BFF2BF9D8046102F027
:1052300030040299013921439201D2B20A4342EA71
:10524000032303605DF8044B704700BF436843F0DD
:1052500002034360704700BF436823F002034360CA
:10526000704700BFC36813F0020FFBD08160704726
:10527000C36813F0020F1ABF81600120002070473D
:10528000C36813F0040FFBD083680B60704700BF46
:10529000C0F8C81F704700BF3AB101388A1811F82A
:1052A000013B00F8013F9142F9D17047CA7E8B7EE5
:1052B00043EA02230278032A05D1487D0A7D42EAA7
:1052C000002243EA02431846704700BF01F1090279
:1052D0000369002B4DD030B440690378202B0FD0E8
:1052E000044601F1110503E014F8013F202B09D019
:1052F000052B08BFE52302F8013BAA42F4D102E0E6
:10530000154600E01546037A202B0AD02E232B7079
:10531000037A202B08BF6A1C04D01DE02A1DEB7005
:1053200000E02A46C37A0B72C57F847F230443EAD8
:105330000564037F2343447F43EA04230B60447ED8
:10534000037E43EA04238B80C47D837D43EA0423E8
:10535000CB80002313700AE0AA1C6B70437A202BC9
:10536000E0D0EA1CAB70837A202BD7D1DAE730BCCF
:10537000704700231370704710B504460A46407802
:1053800004F13801012305F005FB80BB94F83722B6
:1053900094F8363243EA02231BB2184A934228D1CA
:1053A00094F8711094F87020130443EA016294F8A1
:1053B0006E30134394F86F2043EA022323F07F43B7
:1053C0000F4A934217D094F88D0094F88C301B0448
:1053D00043EA006094F88A30034394F88B0043EA70
:1053E000002020F07F43981A18BF012010BD032031
:1053F00010BD022010BD002010BD00BF55AAFFFF48
:1054000046415400037943B32DE9F0410446456B0E
:1054100000F13807407839462A46012305F01CFB85
:10542000E8B900232371A36A9D421BD3226A134467
:105430009D421AD2E678012E1AD94FF00108236A4C
:105440001D44607839462A46434605F005FB013E77
:10545000012EF4D10020BDE8F0810020704701202A
:10546000BDE8F0810020BDE8F0810020BDE8F081BA
:105470000020BDE8F08100BF70B5436B8B420FD0B8
:105480000D460446FFF7BEFF064658B9607804F1A2
:1054900038012A46012305F07DFA28B9656304E046
:1054A000002602E0012600E00126304670BD00BF64
:1054B00090B108B503688BB1197889B1D988828811
:1054C00091420FD1587805F05BFA00F001000028F6
:1054D00014BF0320002008BD09207047092008BD23
:1054E000092008BD092008BDF8B504682378303BC1
:1054F000092B05D865783A2D02D10234046001E009
:10550000C94B1B7800200860002B40F05B81C64B24
:105510005C68002C00F0588115460C60237883B13C
:10552000607805F02DFA10F0010F0AD1002D00F07F
:105530004D8100F00400C0B200280CBF00200A20FA
:10554000F8BD00202070607005F036F910F0010FF2
:1055500040F03E811DB110F0040F40F03B81204629
:105560000021FFF709FF012817D194F8FA31002B29
:1055700000F0328194F8012294F800321B0443EACF
:10558000026394F8FE512B4394F8FF5143EA05253A
:1055900020462946FFF7F0FE00E00025032800F032
:1055A0001D81002840F01C8194F8442094F8433079
:1055B00043EA02231BB2B3F5007F40F0138194F855
:1055C0004F0094F84E3053EA00200DD194F85F203C
:1055D00094F85E301B0443EA026394F85C000343D2
:1055E00094F85D0043EA0020206294F84870E77068
:1055F0007B1EDBB2012B00F2F78094F84530A370DC
:10560000002B00F0F3805A1E1A4240F0F18094F80B
:105610004A6094F8492042EA0626268116F00F0FC8
:1056200040F0E88094F84C1094F84B2052EA0122A4
:105630000DD194F85B1094F85A20120442EA0161EB
:1056400094F858200A4394F8591042EA012294F839
:1056500047E094F8461051EA0E2100F0CD8007FB98
:1056600000F701EB161CBC446245C0F0C780CCEBD0
:105670000202B2FBF3F3002B00F0C28040F6F57E8D
:10568000734594BF4FF0010E4FF0020E4FF6F572C6
:10569000934200F2BF800233E36165622944A16254
:1056A0000CEB05022263BEF1030F19D1002E40F06E
:1056B000A98094F8671094F86620120442EA016108
:1056C00094F864200A4394F8651042EA0122E262E9
:1056D0009B0003F2FF13B0EB532FC0F09580B7E0AF
:1056E000002E00F093803944E162BEF1020F0FBF3B
:1056F0005B0003EB430203F0010303EB5203A1E061
:1057000094F8372294F8363243EA02231BB2474A10
:10571000934242D194F83B2094F83A301B0443EA78
:10572000026294F83830134394F8392043EA022394
:105730003F4A934234D194F81F2294F81E321B043E
:1057400043EA026294F81C32134394F81D2243EAA0
:105750000223384A934226D194F8272294F826321D
:105760001B0443EA026294F82432134394F825227E
:1057700043EA0223E36094F8232294F822321B04C4
:1057800043EA026294F82032134394F8212243EA58
:10579000022323614FF0030E07E04FF0030E04E0F5
:1057A0004FF0030E01E04FF0030E84F800E01E4AB4
:1057B000138901339BB21381E38000206063207161
:1057C000A061F8BD0B20F8BD0C20F8BD0020F8BD8D
:1057D0000320F8BD0A20F8BD0D20F8BD0120F8BD5A
:1057E0000D20F8BD0D20F8BD0D20F8BD0D20F8BD31
:1057F0000D20F8BD0D20F8BD0D20F8BD0D20F8BD21
:105800000D20F8BD0D20F8BD0D20F8BD0D20F8BD10
:105810000D20F8BD0233E36165622944A1620CEBFF
:105820000502226342E700BF900B002055AAFFFF4C
:1058300052526141727241614FF0FF332361002384
:10584000E360B2E703F2FF13B0EB532FE0D3F3E7CB
:105850004FF0FF3323610023E360637194F8692004
:1058600094F8683043EA02222A446261607804F1C5
:105870003801012305F08EF800283FF441AF4FF0C6
:10588000030E92E710B50446FFF7BCFD034600285F
:1058900054D12378032B49D16379002B46D00023C0
:1058A000636304F1380104F50E700B46002203F81F
:1058B000012B8342FBD1552384F83632AA2384F886
:1058C0003732522384F8383084F83930612384F831
:1058D0003A30412284F83B20722084F81C0284F87C
:1058E0001D0284F81E2284F81F32236984F82032B6
:1058F000C3F3072284F821221A0C84F822221B0EFB
:1059000084F82332E36884F82432C3F3072284F84E
:1059100025221A0C84F826221B0E84F82732607880
:105920006269012305F098F8002363716078002113
:105930000A4605F0F3F8031C18BF0123184610BDF2
:105940000239C369023B99423DBF8278036B02FB77
:1059500001300020704700BF01295ED9F8B5C36946
:1059600099425CD20C4606460378022B28D0032BC2
:1059700038D0012B55D101EB5107816A01EB57213A
:10598000FFF77AFD00284FD1C7F30803334493F89B
:1059900038500137B16A304601EB5721FFF76CFDF3
:1059A000002844D1C7F30807F11991F8380045EAF7
:1059B000002014F0010F14BF0009C0F30B00F8BD64
:1059C000816A01EB1421FFF757FD98BB610001F4D8
:1059D000FF71731893F83830314491F8390043EA75
:1059E0000020F8BD816A01EBD411FFF745FD20BB13
:1059F000A10001F4FE7101F1380232449078D378AD
:105A00001B0643EA0043507843EA0020314491F8F2
:105A10003830184320F07040F8BD01207047012055
:105A2000F8BD4FF0FF30F8BD4FF0FF30F8BD4FF03C
:105A3000FF30F8BD4FF0FF30F8BD4FF0FF30F8BD3C
:105A400070B505460C46E9808168012938D00368A5
:105A5000DA69914236D271B91A78032A01D1D96A2A
:105A600049B90022EA601A89A2422DD9DB6A03EB08
:105A700014132B611BE09E783601B44210D32868C2
:105A8000FFF76AFF0146B0F1FF3F1FD001281FD981
:105A90002B68DB6998421DD2A41BA4B2A642EED9A2
:105AA000E9602868FFF74CFF00EB1410286104F050
:105AB0000F035B0138332A6813446B61002070BD0B
:105AC000022070BD022070BD022070BD012070BD9B
:105AD000022070BD022070BD2DE9F0410C46012965
